:020000040800F2
:100000005807002091010008990100089B01000891
:100010009D0100089F010008A101000800000000E8
:10002000000000000000000000000000A301000824
:10003000A501000800000000A7010008A9010008B0
:10004000AB010008AB010008AB010008AB010008E0
:10005000AB010008AB010008AB010008AB010008D0
:10006000AB010008AB010008AB010008AB010008C0
:10007000AB010008AB010008AB010008AB010008B0
:10008000AB010008AB010008AB010008AB010008A0
:100090000F220008AB010008AB010008AB0100080B
:1000A000AB010008AB010008AB010008AB01000880
:1000B000AB010008AB010008AB010008AB01000870
:1000C000AB010008AB010008AB010008AB01000860
:1000D000AB010008B1260008AB010008AB01000825
:1000E000AB010008AB010008AB01000800F002F80A
:1000F00000F03FF80AA090E8000C82448344AAF183
:100100000107DA4501D100F034F8AFF2090EBAE880
:100110000F0013F0010F18BFFB1A43F0010318473B
:100120006830000088300000103A24BF78C878C1D9
:10013000FAD8520724BF30C830C144BF04680C60ED
:10014000704700000023002400250026103A28BF35
:1001500078C1FBD8520728BF30C148BF0B60704739
:10016000642902F08D83002070471FB51FBD10B5B4
:1001700010BD02F04DFC1146FFF7F7FF02F052F9F7
:1001800002F06BFC03B4FFF7F2FF03BC02F024FAA9
:100190000948804709480047FEE7FEE7FEE7FEE71B
:1001A000FEE7FEE7FEE7FEE7FEE7FEE70448054957
:1001B000054A064B70470000AF020008ED0000083A
:1001C0005801002058070020580300205803002041
:1001D0000CB50020019000906C48006840F480301D
:1001E0006A49086000BF6948006800F40030009068
:1001F0000198401C0190009818B90198B0F5A06FC3
:10020000F1D16248006800F4003010B10120009084
:1002100001E0002000900098012843D15C4800686C
:1002200040F010005A4908600846006820F00300BA
:1002300008600846006840F00200086053484068C3
:10024000524948600846406848600846406840F4A3
:10025000806048600846406820F47C10486008468A
:10026000406840F4881048600846006840F080709C
:10027000086000BF4548006800F000700028F9D011
:100280004248406820F00300404948600846406802
:1002900040F00200486000BF3C48406800F00C009D
:1002A0000828F9D10CBD10B5FFF792FF10BD10B5AD
:1002B0003648006840F0010034490860084640684C
:1002C00034490840314948600846006832490840CE
:1002D0002E4908600846006820F48020086008461F
:1002E000406820F4FE0048604FF41F008860FFF76C
:1002F000DAFF4FF000602949086010BD10B50021F9
:1003000000200022214B5B6803F00C0121B104297D
:1003100006D0082928D107E0214B224C236027E092
:10032000214B204C236023E0184B5B6803F47010D2
:10033000164B5B6803F48032022303EB904022B932
:100340001A4B4343174C23600DE0104B5B6803F4DA
:10035000003323B1164B4343124C236003E0124B8E
:100360004343104C236003E00D4B0E4C236000BF51
:1003700000BF064B5B68C3F303130E4CE15C094BF3
:100380001B68CB40074C236010BD000000100240EA
:10039000002002400000FFF8FFFFF6FE08ED00E03D
:1003A00000127A0000000020001BB70000093D0089
:1003B000808D5B000400002031490143314A116007
:1003C000704770B5002100230F22C47804B32D4C70
:1003D000246804F4E064C4F5E064210AC1F1040374
:1003E000CA40447804FA03F1847814402143090197
:1003F000254C0678A155047804F01F050124AC4073
:1004000005786D11AD0005F1E025C5F8004109E062
:10041000047804F01F050124AC401C4D06787611C9
:1004200045F8264070BD1A4A0A400243154B1B1F6F
:100430001A60704739B1134A121D12680243114BFA
:100440001B1D1A6006E00F4A121D126882430D4BF5
:100450001B1D1A607047042808D14FF0E02109697C
:1004600041F004014FF0E022116107E04FF0E0217C
:10047000096921F004014FF0E0221161704700008A
:100480000000FA050CED00E000E400E080E100E08F
:1004900080FFFF1FDF48006840F00100DD49086071
:1004A00008464068DC490840DA4948600846006868
:1004B000DA490840D74908600846006820F48020DF
:1004C00008600846406820F4FE0048604FF41F00B2
:1004D00088607047CF49096821F48031CD4A1160A6
:1004E0001146096821F480211160B0F5803F03D0E6
:1004F000B0F5802F0ED106E0C649096841F480317D
:10050000C44A116007E0C349096841F4A021C14A07
:10051000116000E000BF00BF704710B50146002227
:10052000002300204A11012A02D1BA4C236806E0B8
:10053000022A02D1B74C236A01E0B64C636A01F08B
:100540001F02012494401C400CB1012000E0002057
:1005500010BD38B5002000900024002500BF3120D8
:10056000FFF7DBFF05460098401C00900098B0F5AF
:10057000A06F01D0002DF2D03120FFF7CEFF08B1DF
:10058000012400E00024204638BD01460020A14A95
:10059000106820F0F80040EAC10010607047A049E0
:1005A00008607047024600209A4B586820F47C107F
:1005B00042EA01031843974B586070479849086610
:1005C000704701460020934A506820F0030008431A
:1005D000506070478F48406800F00C00704701463B
:1005E00000208C4A506820F0F000084350607047AB
:1005F00001460020874A506820F4E06008435060BC
:10060000704701460020834A506820F4605040EA59
:10061000C1005060704729B17E4A527A02437D4B37
:100620005A7204E07B4A527A82437A4B5A7270477C
:100630007B49D8310860704701460020754A5068F0
:1006400020F440400843506070470021714A203236
:100650001170704A82F82010012802D004280AD1B3
:1006600004E001216B4A2032117005E00521694A3E
:100670002032117000E000BF00BF70476949086078
:1006800070476449096A0143624A116270476549CB
:1006900044390860704730B500210022002400234F
:1006A0005C4D6D6805F00C0121B1042905D00829C5
:1006B00023D105E05C4D056022E05C4D05601FE044
:1006C000544D6D6805F47012524D6D6805F4803418
:1006D000022505EB92421CB9554D554305600BE0D0
:1006E0004C4D6D6805F400351DB1524D5543056004
:1006F00002E04E4D5543056002E04B4D056000BFE2
:1007000000BF444D6D6805F0F00109094A4D6B5C6E
:100710000568DD4045603F4D6D6805F4E061090AFC
:10072000454D6B5C4568DD4085603A4D6D6805F46C
:100730006051C90A404D6B5C4568DD40C560354D70
:100740006D6805F44041890B3C4D6B5CC568B5FB99
:10075000F3F5056130BD29B12E4A526902432D4B94
:100760005A6104E02B4A526982432A4B5A6170470E
:1007700029B1284A92690243264B9A6104E0254A2E
:1007800092698243234B9A61704729B1214AD26909
:100790000243204BDA6104E01E4AD26982431D4BBA
:1007A000DA61704729B11B4AD2680243194BDA60FB
:1007B00004E0184AD2688243164BDA60704729B1C8
:1007C000144A12690243134B1A6104E0114A126978
:1007D0008243104B1A6170471249403908607047D4
:1007E0000F49C86470470B49C87170470948406A8F
:1007F00040F0807007494862704701460020054A72
:1008000092680A400AB1012000E0002070470149C7
:1008100088727047001002400000FFF8FFFFF6FEEC
:10082000000042428004424200127A00001BB700DE
:1008300000093D00808D5B00140000202400002092
:1008400010B50446CC48844208D101210420FFF7AA
:10085000A9FF00210420FFF7A5FF46E0C748844216
:1008600008D101210820FFF79DFF00210820FFF794
:1008700099FF3AE0C248844208D101211020FFF7D5
:1008800091FF00211020FFF78DFF2EE0BD4884422C
:1008900008D101212020FFF785FF00212020FFF74C
:1008A00081FF22E0B848844208D101214020FFF7AF
:1008B00079FF00214020FFF775FF16E0B34884421E
:1008C00008D101218020FFF76DFF00218020FFF774
:1008D00069FF0AE0AE48844207D101218015FFF785
:1008E00061FF0021A015FFF75DFF10BD10B50121CC
:1008F0000846FFF757FF00210120FFF753FF10BD07
:100900002DE9F041024600250026002000230024A6
:10091000002791F803C00CF00F0591F803C00CF00C
:10092000100CBCF1000F03D091F802C04CEA050591
:1009300091F800C0BCF1000F31D0146800202BE00A
:100940004FF0010C0CFA00F3B1F800C00CEA0306FA
:100950009E4220D183004FF00F0C0CFA03F7BC43EA
:1009600005FA03FC4CEA040491F803C0BCF1280F1B
:1009700006D14FF0010C0CFA00FCC2F814C00AE0DA
:1009800091F803C0BCF1480F05D14FF0010C0CFAEF
:1009900000FCC2F810C0401C0828D1D31460B1F884
:1009A00000C0BCF1FF0F34DD546800202EE000F1E0
:1009B000080C4FF0010808FA0CF3B1F800C00CEA7B
:1009C00003069E4221D183004FF00F0C0CFA03F76F
:1009D000BC4305FA03FC4CEA040491F803C0BCF1E3
:1009E000280F05D100F1080C08FA0CF8C2F81480A1
:1009F00091F803C0BCF1480F07D100F1080C4FF08B
:100A0000010808FA0CF8C2F81080401C0828CED360
:100A10005460BDE8F0814FF6FF71018002218170C2
:100A20000421C17070470246002093680B400BB14F
:100A3000012000E0002070470146886880B27047BE
:100A400002460020D3680B400BB1012000E00020DB
:100A500070470146C86880B27047016170474161C4
:100A600070470AB1016100E041617047C1607047A1
:100A70004FF480320A4382618161826182698269B6
:100A8000704702460020434B18684FF680731840A9
:100A900040EA021008433F4B186070473E49C86166
:100AA0007047F0B50A46002300240021002500F01D
:100AB0000046B6F1004F02D1364EF16901E0354EE5
:100AC0007168C0F3034583B200F44016B6F5401FC9
:100AD00008D121F070612F4E766826F070662D4F98
:100AE0007E6012E000F48016B6F5801F06D1032662
:100AF00006FA05F4A14341F0706106E0460D3601A7
:100B000003FA06F6B14341F0706122B1460D360199
:100B100003FA06F6314300F00046B6F1004F02D169
:100B20001C4EF16101E01B4E7160F0BD30B500223A
:100B30008B071C0F0F2303FA04F2164B08338C109B
:100B400053F824309343134C08348D1044F8253067
:100B500023468C1053F824308C07240F00FA04F439
:100B600023430C4C08348D1044F8253030BD0A491D
:100B7000DC3108607047000000080140000C0140B3
:100B8000001001400014014000180140001C014009
:100B900000200140000001400000204210B5044642
:100BA000FB48844209D101218803FFF7FBFD0021A6
:100BB0004FF48040FFF7F6FD32E0F648844209D159
:100BC00001214804FFF7FBFD00214FF40030FFF73F
:100BD000F6FD25E0F048844209D101218804FFF7A1
:100BE000EEFD00214FF48020FFF7E9FD18E0EB480F
:100BF000844209D10121C804FFF7E1FD00214FF42F
:100C00000020FFF7DCFD0BE0E548844208D101211C
:100C10000805FFF7D4FD00214FF48010FFF7CFFD4A
:100C200010BD2DE9F04786B005460E460024A246C9
:100C300000BFA1460027B08900B100BF2F462C8A13
:100C40004CF6FF700440F08804432C82AC894EF6C9
:100C5000F3100440B0883189084371890843044384
:100C6000AC81AC8A4FF6FF400440B0890443AC82AB
:100C700001A8FFF710FDC648874202D1DDF810A099
:100C800001E0DDF80CA0A88900F4004040B10AEBB7
:100C9000CA0000EB0A1031684900B0FBF1F807E028
:100CA0000AEBCA0000EB0A1031688900B0FBF1F8CA
:100CB0006420B8FBF0F004012009642101FB1089D5
:100CC000A88900F4004040B1322000EBC900B0FB1D
:100CD000F1F000F00700044308E0322000EB0910B7
:100CE0006421B0FBF1F000F00F0004432C8106B04A
:100CF000BDE8F0874FF41651016000218180C1806A
:100D000001810C21418100218181704710B502468B
:100D10000020108A4FF2FF0318400B884C882343B1
:100D20008C882343CC8823431843108210BD0021B4
:100D3000018041808180C180704721B1828942F465
:100D40000052828104E082894DF6FF731A4082814D
:100D50007047F0B50346002400260025002040F629
:100D60006A17B94200D100BF1846C1F3421401F01E
:100D70001F06012707FA06F5012C01D10C3004E00B
:100D8000022C01D1103000E014301AB107682F4353
:100D9000076002E00768AF430760F0BD1AB1838ABD
:100DA0000B43838202E0838A8B4383827047028AEB
:100DB0004FF6F0731A400282028A0A430282704799
:100DC00082894FF2FF731A40828182890A438281AD
:100DD000704721B1828942F00202828104E0828957
:100DE0004FF6FD731A4082817047028A4FF6DF7317
:100DF0001A400282028A0A430282704721B1028AA3
:100E000042F48042028204E0028A4BF6FF731A40E9
:100E100002827047C1F308028280704701468888C9
:100E2000C0F308007047818941F00101818170475A
:100E3000028BD2B20283028B42EA01220283704704
:100E4000028B02F47F420283028B0A4302837047C3
:100E500021B1828A42F02002828204E0828A4FF627
:100E6000DF731A408282704721B1828A42F01002F9
:100E7000828204E0828A4FF6EF731A4082827047C2
:100E800021B1828A42F00802828204E0828A4FF60F
:100E9000F7731A408282704721B1828942F400427E
:100EA000828103E08289C2F30E028281704721B100
:100EB000828A42F40062828204E0828A4FF2FF73E7
:100EC0001A4082827047828A4FF6FB731A408282F0
:100ED000828A0A438282704721B1828A42F00202EA
:100EE000828204E0828A4FF6FD731A408282704744
:100EF00002460020B1F5007F00D100BF13880B40EF
:100F00000BB1012000E00020704701F40072B2F53F
:100F1000007F00D100BFCA430280704770B502460F
:100F2000002400230025002040F66A16B14200D1BB
:100F300000BFC1F3421501F01F03012606FA03F3B7
:100F4000012D02D19689334006E0022D02D1168A86
:100F5000334001E0968A33400C12012606FA04F46D
:100F60001688344013B10CB1012000E0002070BDA0
:100F700010B50022002340F66A14A14200D100BF40
:100F80000A1201249440A3B2DC43048010BD000087
:100F9000003801400044004000480040004C004040
:100FA0000050004010B50446FA48844208D101219F
:100FB0004015FFF7F7FB00216015FFF7F3FB17E083
:100FC000F548844208D101210015FFF7EBFB002111
:100FD0002015FFF7E7FB0BE0F048844208D1012120
:100FE000C803FFF7DFFB00214FF40040FFF7DAFBF7
:100FF00010BD30B50246002000235068E84C204068
:101000000D790C6844EA0524204350609068E54C53
:101010002040D1E902542C434D7944EA4504204351
:101020009060D06A20F470000C7C641EE4B223430C
:1010300040EA0350D06230BD00210160017141716E
:101040008160C16001210174704721B1826842F062
:101050000102826003E0826822F001028260704730
:1010600021B1826842F48072826003E0826822F4D7
:1010700080728260704710B50023CBB21AB1446809
:101080001C43446002E044689C43446010BD816896
:1010900041F0080181607047014600208A6802F033
:1010A00008020AB1012000E000207047816841F089
:1010B000040181607047014600208A6802F0040242
:1010C0000AB1012000E00020704721B1826842F49B
:1010D000A002826003E0826822F4A002826070476E
:1010E000014600208A6802F480020AB1012000E073
:1010F0000020704710B50A4600210023416821F402
:101100006041531E41EA4331416010BD21B1426844
:1011100042F40062426003E0426822F400624260EE
:101120007047F0B504460D4600200021092D11DD61
:10113000E068A5F10A0606EB4607072606FA07F15E
:101140008843A5F10A0606EB460603FA06F10843B2
:10115000E0600CE0206905EB4507072606FA07F179
:10116000884305EB450603FA06F108432061072A88
:101170000FDA606B561E06EB86071F2606FA07F18C
:101180008843561E06EB860605FA06F1084360639F
:1011900022E00D2A0FDA206BD61F06EB86071F26EA
:1011A00006FA07F18843D61F06EB860605FA06F114
:1011B0000843206310E0E06AA2F10D0606EB860703
:1011C0001F2606FA07F18843A2F10D0606EB8606F4
:1011D00005FA06F10843E062F0BD21B1826842F4ED
:1011E0008012826003E0826822F48012826070477D
:1011F0000146C86C80B2704766484C300068704742
:1012000021B1426842F48062426003E0426822F405
:1012100080624260704721B1426842F4805242606D
:1012200003E0426822F48052426070470A4600217F
:10123000816821F4E04111438160704721B18268E7
:1012400042F40042826003E0826822F4004282603D
:10125000704721B1826842F40212826003E0826822
:1012600022F4021282607047014600208A6802F46C
:1012700000120AB1012000E000207047F0B50446DA
:101280001546002000220026092911DDE068A1F1A1
:101290000A0707EB470C072707FA0CF29043A1F166
:1012A0000A0707EB470703FA07F21043E0600CE078
:1012B000206901EB410C072707FA0CF2904301EB80
:1012C000410703FA07F210432061A06BC0F30156F7
:1012D000EF1C06F1010CA7EB0C0707EB870C1F278F
:1012E00007FA0CF29043EF1C06F1010CA7EB0C0778
:1012F00007EB870701FA07F21043A063F0BD10B5B2
:101300000A4600210023816B21F44011531E41EA5B
:101310000351816310BD08B5002300930090009B2A
:101320000B440093009B1A6008BD08B502460020DC
:101330000090009201F12800009B18440090009852
:10134000006880B208BD0A4600214168164B19406A
:101350001143416070474162826270470A46002132
:10136000416821F01F0111434160704740B10949B4
:101370000831096841F40001064A0832116007E0AB
:1013800004490831096821F40001024A0832116059
:10139000704700000024014000280140003C01404B
:1013A000FFFEF0FFFDF7F1FFFFFD3FFF02460020CB
:1013B00013680B400BB1012000E000207047CA43C6
:1013C0000260704770B502460020002300240B1213
:1013D0005568CEB205EA060415681D4015B10CB17A
:1013E000012000E0002070BD00220A12D3430360F8
:1013F0007047000010B50446FE48844209D101211F
:101400004806FFF7DCF900214FF00070FFF7D7F92D
:1014100008E001218806FFF7D2F900214FF0806033
:10142000FFF7CDF910BD30B5024600200023146847
:1014300024F002041460146844F00104146000E015
:101440005B1C546804F001041CB94FF6FF74A342FE
:10145000F6D1546804F001040CB900206CE08C79DA
:10146000012C04D1146844F08004146003E0146873
:1014700024F080041460CC79012C04D1146844F069
:101480004004146003E0146824F0400414600C7AF3
:10149000012C04D1146844F02004146003E01468A3
:1014A00024F0200414604C7A012C04D1146844F018
:1014B0001004146003E0146824F0100414608C7AA3
:1014C000012C04D1146844F00804146003E014688B
:1014D00024F008041460CC7A012C04D1146844F080
:1014E0000404146003E0146824F0040414608C788D
:1014F000A407CD7844EA05640D7944EA05444D79A2
:1015000044EA05540D886D1E2C43D461146824F000
:1015100001041460002300E05B1C546804F0010423
:101520001CB14FF6FF74A342F6D1546804F00104D5
:101530000CB1002000E0012030BD10B50021837AFD
:10154000012202FA03F1AC4A126842F00102AA4BEE
:101550001A60A94A1C3212688A43A74B1C331A60CE
:10156000027BCAB9A44A0C3212688A43A24B0C33DC
:101570001A604288C38842EA03439F4A4032847A11
:1015800042F834300288838842EA03439A4A403260
:10159000847A02EBC4025360027B012A19D1964A75
:1015A0000C3212680A43944B0C331A604288038849
:1015B00042EA0343904A4032847A42F83430C28887
:1015C000838842EA03438C4A4032847A02EBC402A5
:1015D0005360C27A3AB9884A121D12688A43864B10
:1015E0001B1D1A6006E0844A121D12680A43824BD2
:1015F0001B1D1A60028932B97F4A143212688A436D
:101600007D4B14331A600289012A06D17A4A1432BA
:1016100012680A43784B14331A60427B012A06D1C0
:10162000754A1C3212680A43734B1C331A60724AA3
:10163000126822F00102704B1A6010BD0021817106
:10164000C171017241728172C1728170C1700321D6
:1016500001710221417101210180704766490968C9
:1016600041F00101644A11601146096843F60E72A7
:101670009143614A11601146096841EA00211160F5
:101680001146096821F001011160704721B102681B
:1016900042F48032026003E0026822F48032026089
:1016A0007047E1B1026842F0800202604FF4C272FA
:1016B000125842F480734FF4C27213504FF4CA723E
:1016C000125842F480734FF4CA7213504FF4D2721E
:1016D000125842F480734FF4D27213501BE0026828
:1016E00022F0800202604FF4C272125822F480731A
:1016F0004FF4C27213504FF4CA72125822F480731E
:101700004FF4CA7213504FF4D272125822F48073FD
:101710004FF4D2721350704710B502460020936800
:1017200003F08063B3F1806F00D110E0936803F0A1
:101730000063B3F1006F01D1012008E0936803F06A
:101740008053B3F1805F01D1022000E0042004281F
:1017500079D002F5C07303EB00131B6803F001049A
:1017600002F5C07303EB00131C600B7A7BB94B7A54
:101770000C8843EA445302F5C07404EB0014246857
:10178000234302F5C07404EB0014236010E00B7ACD
:101790004C6843EAC4034C7A234302F5C07404EB5B
:1017A00000142468234302F5C07404EB0014236082
:1017B0008B7A03F00F038B7202F5C07303EB0013F7
:1017C0005B6823F00F0402F5C07303EB00135C6049
:1017D00002F5C07303EB00135B688C7A234302F5B8
:1017E000C07404EB001463608B7B1C064B7B44EAE3
:1017F000034403E000640040006600400B7B44EAC1
:101800000323CC7A234302F5C07404EB0014A360D5
:101810008B7C1C064B7C44EA03440B7C44EA032388
:10182000CC7B234302F5C07404EB0014E36002F5A3
:10183000C07303EB00131B6843F0010402F5C0738F
:1018400003EB00131C6010BD10B50246002321B14C
:10185000012907D002290FD109E09068F94C00EA6C
:1018600004030BE09068F84C00EA040306E090687B
:10187000F64C00EA040301E0002300BF00BFF44C73
:10188000181BA34216D007DC83B16FF080601844A8
:1018900070B1022818D111E0B0F5007F10D0ED4CE6
:1018A000204448B1B0F5003F0ED10BE002230DE01B
:1018B00000230BE0002309E0002307E0012305E0FB
:1018C000012303E0012301E0002300BF00BFD8B2E1
:1018D00010BD21B1012907D002290FD109E082688A
:1018E00042F0800282600AE0826842F40042826034
:1018F00005E0826842F40002826000E000BF00BFA1
:10190000704710B500F5D87303EB01131B6803F0A3
:1019100004031372137A53B900F5D87303EB011360
:101920001B6840F2FF7404EA5353136009E000F5AA
:10193000D87303EB01131B686FF0604404EAD30310
:10194000536000F5D87303EB01131B6803F0020327
:10195000537200F5D87303EB01135B6803F00F03B8
:10196000937200F5D87303EB01135B681B0AD37401
:1019700000F5D87303EB01139B68D37200F5D8739D
:1019800003EB01139B681C0A147300F5D87303EB77
:1019900001139B681C0C547300F5D87303EB0113FF
:1019A0009B681B0E937300F5D87303EB0113DB6880
:1019B000D37300F5D87303EB0113DB681C0A1474AE
:1019C00000F5D87303EB0113DB681C0C547400F5AD
:1019D000D87303EB0113DB681B0E937421B9C36842
:1019E00043F02003C36003E0036943F02003036175
:1019F00010BD21B9C26842F02002C26003E0026952
:101A000042F02002026170470246002019B9D368F3
:101A100003F0030006E0012903D1136903F003007A
:101A200000E00020704710B502460B4600204FF63C
:101A3000FF71BBB9146824F0020444F0010414607F
:101A400000E0491E546804F00304012C01D0002971
:101A5000F7D1546804F00304012C01D0002032E0D7
:101A6000012030E0012B13D1146824F0030414602A
:101A700000E0491E546804F003040CB10029F8D1B9
:101A8000546804F003040CB100201CE001201AE0AB
:101A9000022B17D1146824F0010444F002041460EE
:101AA00000E0491E546804F00304022C01D0002910
:101AB000F7D1546804F00304022C01D0002002E0A6
:101AC000012000E0002010BD014600200A6822F03D
:101AD000010242F002020A604A6802F00302022A8E
:101AE00000D10120704701464FF6FF7200200B68BD
:101AF00023F002030B6000E0521E4B6803F0020368
:101B0000022B01D1002AF7D14B6803F00203022B0C
:101B100000D001207047014600208A6902F0700061
:101B20007047014600208A69100E70470146002068
:101B30008A69C2F3074070471AB143690B43436196
:101B400002E043698B434361704710B502460020B1
:101B500001F4700343B19369C1F3130423400BB143
:101B600001202DE000202BE001F0807343B1536889
:101B7000C1F3130423400BB1012021E000201FE03A
:101B800001F0006343B19368C1F3130423400BB128
:101B9000012015E0002013E001F0007343B1D36889
:101BA000C1F3130423400BB1012009E0002007E03A
:101BB0001369C1F3130423400BB1012000E000209E
:101BC00010BD0022244B994202D10023836111E011
:101BD000C1F3130201F000730BB1C2600AE001F01F
:101BE00080630BB1026105E001F000630BB182601C
:101BF00000E0426070470246002002EA01030BB198
:101C0000012000E00020704770B504460D46002614
:101C100060692840002872D0B5F5807F69D01DDC4E
:101C2000082D42D006DC012D2DD0022D31D0042DFF
:101C30007FD134E0102D3ED0202D42D0402D78D1E0
:101C400045E000000300000400030008000003104A
:101C5000000100080001FFF77000F030B5F5004FFB
:101C600061D009DCB5F5007F4AD0B5F5806F4DD065
:101C7000B5F5006F5DD150E0B5F5803F2DD0B5F5DD
:101C8000003F56D12FE0A0685549FFF7B4FF064644
:101C900051E0E0680321FFF7AEFF06464BE0E06845
:101CA0000821FFF7A8FF064645E0E0681021FFF78E
:101CB000A2FF06463FE020690321FFF79CFF06468E
:101CC00039E020690821FFF796FF064633E02069D6
:101CD0001021FFF790FF06462DE060680821FFF70E
:101CE0008AFF064627E060681021FFF784FF06465A
:101CF00021E0A0690121FFF77EFF06461BE01BE003
:101D0000A0690221FFF777FF064614E0A0690421CD
:101D1000FFF771FF06460EE00BE0A0697021FFF7A8
:101D20006AFF064607E060680421FFF764FF064685
:101D300001E0002600BF00E00026304670BDB1F58E
:101D4000007F3AD00FDC202928D006DC01291CD0E6
:101D500004291DD0082940D11DE0402921D0B1F52A
:101D6000807F3AD126E0B1F5004F31D006DCB1F5E5
:101D7000806F25D0B1F5006F2FD124E0B1F5803F01
:101D800012D0B1F5003F28D111E0154A826025E05C
:101D90000822C26022E01022C2601FE00822026115
:101DA0001CE01022026119E00822426016E01022B5
:101DB000426013E00422426010E0042242600DE021
:101DC000042242600AE0002282610422426005E0AF
:101DD000002282610422426000E000BF00BF704721
:101DE0000101010001684FF6FE72114001600021FF
:101DF000016041608160C1608D49884208D18C4991
:101E00000839496841F00F01894A083A51608AE06F
:101E100087491431884208D185490839496841F019
:101E2000F001834A083A51607DE0814928318842B7
:101E300008D17F490839496841F470617C4A083A01
:101E4000516070E07A493C31884208D178490839BC
:101E5000496841F47041764A083A516063E0744938
:101E60005031884208D172490839496841F47021DB
:101E70006F4A083A516056E06D496431884208D192
:101E80006B490839496841F47001694A083A516060
:101E900049E067497831884208D16549083949687D
:101EA00041F07061624A083A51603CE06149884201
:101EB00006D1011F096841F00F01021F116032E0D5
:101EC0005C491431884208D15A49091F096841F018
:101ED000F001584A121F116025E056492831884206
:101EE00008D15449091F096841F47061514A121F11
:101EF000116018E04F493C31884208D14D49091F13
:101F0000096841F470414B4A121F11600BE04949C6
:101F10005031884207D14749091F096841F47021AF
:101F2000444A121F1160704710B50022026847F63C
:101F3000F0739A430C6A8B6823430C6923434C6902
:101F400023438C692343CC6923434C6A23438C6A23
:101F500023431A430260CB6843600B6883604B687D
:101F6000C36010BD0021016041608160C1600161FA
:101F700041618161C161016241628162704721B149
:101F8000026842F00102026004E002684FF6FE734C
:101F90001A40026070471AB103680B43036002E005
:101FA00003688B430360704741607047014648688F
:101FB00080B2704701460020002201F080531BB11F
:101FC0001C4B083B1A6802E0194B083B1A6802EAEE
:101FD00001030BB1012000E00020704700F08051A8
:101FE00019B11449091F086002E011490839486015
:101FF000704701460020002201F080531BB10D4BB9
:10200000083B1A6802E00A4B083B1A6802EA01031F
:102010000BB1012000E00020704700F0805119B1A1
:102020000449091F086002E0014908394860704707
:10203000080002400804024008B501210420FEF710
:1020400097FB01210820FEF793FB01211020FEF7EA
:102050008FFB01212020FEF78BFB2020ADF8000034
:1020600010208DF8030002208DF8020069462548F3
:10207000FEF746FC4FF4F850ADF8000048208DF80C
:10208000030069462048FEF73BFC4FF40050ADF8D2
:10209000000014208DF8030003208DF8020069462B
:1020A0001948FEF72DFC01214806FEF76EFB0121C1
:1020B0000846FEF75DFB4FF40060ADF800004820D5
:1020C0008DF8030069461148FEF71AFC4FF4805062
:1020D000ADF8000003208DF8020018208DF80300F1
:1020E00069460A48FEF70CFCC020ADF8000003204A
:1020F0008DF802001C208DF8030069460148FEF7A8
:10210000FFFB08BD000C0140001001400008014029
:1021100000B589B001214806FEF737FB01210846CA
:10212000FEF726FB4FF40060ADF8200048208DF844
:10213000230008A9F748FEF7E3FB4FF48050ADF801
:10214000200003208DF8220018208DF8230008A914
:10215000F048FEF7D5FBC020ADF8200000208DF838
:10216000230008A9EB48FEF7CBFBEB48FFF742F949
:1021700005A8FFF763FA00208DF81A0001208DF8FA
:102180001B008DF81C008DF81D0000208DF81E002E
:102190008DF81F008DF816008DF8170004208DF8BB
:1021A000180001208DF819000920ADF8140005A9C8
:1021B000D948FFF738F900208DF80E008DF80F0090
:1021C00001208DF810000020ADF80400ADF80600E5
:1021D000ADF80800ADF80A00ADF80C0001208DF84C
:1021E000110001A8FFF7A9F901220221CA48FFF74F
:1021F000A3FC09B000BD07E0002101E04A1C91B238
:10220000B1F57A7FFADB401E0028F5D1704700B5A2
:1022100085B0002000906A460021BF48FFF771FB9F
:1022200040F25451009888420BD1BC480078401CC1
:10223000BA490870084600780A2802D10120FFF741
:10224000DAFF05B000BD30B585B0002540F2DA50A8
:10225000009000208DF809008DF8080008208DF806
:102260000A00AF4800788DF80B0000218DF80C10A3
:1022700000F0BBFA8DF80D00AA480088C0F30711E2
:102280008DF80E10A74800780007010E8DF80F108A
:1022900000218DF810108DF811108DF8121069467C
:1022A0009D48FFF739FA0546002400E0641C2946E2
:1022B0009948FFF7C9FA012801D0FF2CF6D1002474
:1022C00000E0641C00219448FFF79EFB012801DA1E
:1022D000FF2CF6D1002005B030BD10B50446072311
:1022E000012221469048FEF71CFF01218E48FEF78F
:1022F000ECFE00BF02218C48FFF758F80028F9D007
:102300008948FEF775FF10BD00B58BB00121084666
:10231000FEF721FA8548FFF765FD83484C300090B1
:102320008348019000200290062003900020049032
:1023300080200590400006908000079020200890A3
:102340000002099000200A9069467848FFF7ECFDEA
:1023500001217648FFF713FE0BB000BD00B585B034
:1023600001214802FEF704FA4FF40040FEF764F939
:10237000002000908DF804008DF805004FF46020D7
:1023800002900020039001208DF8100069466648F5
:10239000FEF72FFE00216448FEF762FE012162482D
:1023A000FEF753FE6048FEF772FE00BF5E48FEF780
:1023B00073FE0028FAD15C48FEF778FE00BF5A4849
:1023C000FEF779FE0028FAD105B000BD08B500215E
:1023D0004FF00060FEF727F84FF4C060FDF7ECFF08
:1023E00014208DF8000000208DF801008DF8020007
:1023F00001208DF803006846FDF7E3FF4FF4A0606D
:10240000FDF7DAFF26208DF8000002208DF801008C
:1024100000208DF8020001208DF803006846FDF7CA
:10242000D0FF08BDFDF743FFFFF772FEFFF7CEFFB9
:1024300000F000F9FFF700FE4FF4E13000F01AF968
:102440003C4800F0DDF9FFF789FFFFF75DFF6420EE
:10245000FFF7D1FE9EE040F21E30FFF7CCFE0620D3
:10246000FFF73BFF3449088034480078D0B9002496
:102470000AE031480088324921F814002E480088CB
:10248000304921F81400641C102CF2DB2A48008823
:1024900024490880284800882B49088001202749C2
:1024A00008706AE0294800880F2805DC2748008862
:1024B000401C2649088002E00020244908801E486C
:1024C00000881F49214A128821F812000020204963
:1024D0000880002408E01A4830F814001C490988D4
:1024E00008441B490880641C102CF4DB1849088838
:1024F000C11700EB11710911154A118010460088AF
:102500001049124A128821F8120000201049088050
:10251000002428E00008014000640040330000204F
:102520004E0000203000002000240140080002403E
:1025300052000020AC2F0008400000205000002076
:10254000B4000020D40000204A00002048000020F1
:102550004C000020174830F8140017490988084437
:1025600015490880641C102CF4DB13490888C11736
:1025700000EB11710911114A11801048008800F018
:10258000E8F80F4908800D4800880E490880FFF7D9
:102590005AFE00BF5FE710B50B48FEF729FE0B4956
:1025A00008600B4800880B4908600948408848606B
:1025B00010BD0000D40000204C0000204A00002084
:1025C0004E00002030000020002401403400002094
:1025D0005200002038000020014600BF704770B54F
:1025E00004460D4600BF80213D48FEF781FC0028CF
:1025F000F9D0A1B23A48FEF70DFC204670BD10B5E7
:10260000044600BF80213648FEF772FC0028F9D04E
:1026100021463348FEF7FEFB10BD10B500BF202158
:102620002F48FEF765FC0028F9D02D48FEF7F6FB91
:10263000C0B210BD08B5012144F20400FEF798F8BD
:102640004FF40070ADF8000018208DF8030003204F
:102650008DF8020069462348FEF752F94FF4806076
:10266000ADF8000004208DF8030069461D48FEF710
:1026700047F908BD1FB5044600940020ADF80400DA
:10268000ADF80600ADF80800ADF80C000C20ADF870
:102690000A0069461248FEF7C4FA012240F22551A9
:1026A0000F48FEF756FB01210D48FEF746FB1FBD04
:1026B00010B540F225510A48FEF730FC40F2255192
:1026C0000748FEF755FC0648FEF7A8FBC4B22146B2
:1026D00005A000F095F805A000F092F810BD0000EC
:1026E0000038014000080140256400000A0D000088
:1026F0002DE9F04F87B082468B4614469946ABEBE6
:10270000090000F03EFB05460E46AAEB040000F06F
:1027100038FB074688461099081B00F032FBCDE9CC
:1027200002013A4643462846314600F0A3F9CDE976
:102730000001DDE9022300F03BFBCDE90401DDE906
:10274000040100F0EFFA48440690069807B0BDE88F
:10275000F08F2DE9F84F054640F6E440854204DD50
:10276000FF260220224908703DE0B5F57A7F04DAA1
:10277000002601201E49087035E000201C49087021
:1027800000242EE01B4830F81400A84205D11A4856
:1027900030F814603046BDE8F88F164830F8140061
:1027A000A8421CDB1349601C31F81000A84216DA5D
:1027B000084630F81470601C31F810800E4830F86C
:1027C00014900146601C31F810A053464246494619
:1027D00038460095FFF78CFF86B23046DBE7601C79
:1027E000C4B20E2CCEDB3046D5E7014800787047E6
:1027F000B2000020960000207A0000207047000000
:102800000FB4044910B503AA029800F0D3F810BC25
:102810005DF814FB5C0000202DE9F0410E460446F3
:10282000002020622046E168884730B3252805D083
:10283000D4E901219047206A401CF2E7E168204674
:1028400000278847050018D0A5F14100192802D8B3
:1028500020354FF400673246294620462760FDF7B1
:102860007FFC40B1012804D0F61D26F0070608368B
:10287000D8E7361DD6E72846DAE7206ABDE8F081BA
:102880002DE9F0410646002410687529314616A549
:1028900010D0AFF30080002802DA404213A507E011
:1028A00031688A0701D512A502E0490704D511A5B0
:1028B000012401E0AFF3008000210A2206F1240781
:1028C00009E0B0FBF2FCB0FBF2F302FB1C0030307D
:1028D00078541846491C0028F3D123462A4630462E
:1028E000BDE8F04100F00CB8000000002D00000031
:1028F0002B000000200000007047704770477047B1
:102900002DE9F0470D4699469246044600F1240809
:102910000168880604D5E06921F01001216000E01B
:102920000120A84201DD471B00E00027A1697A19B8
:1029300002EB0900081AA0612078C00602D42046E4
:10294000AFF30080002608E0D4E901211AF8060060
:102950009047206A401C761C20624E45F4DB2078AC
:10296000C0060AD52046AFF3008006E0D4E9012175
:1029700030209047206A401C2062381EA7F10107D2
:10298000F4DC07E0D4E9012118F805009047206A3B
:10299000401C2062281EA5F10105F3DC2046AFF3A0
:1029A00000802078000602D50220BDE8F0870120D3
:1029B000FBE70000074B70B50D467B4400F011F8B3
:1029C0000446284600F020F810B14FF0FF3070BDEB
:1029D000204670BD21FCFFFF01694A1C0261087896
:1029E000704700B58FB0CDE901310021059105494F
:1029F0007944CDE9031011466846FFF70DFF0FB08B
:102A000000BD0000E5FFFFFF007B00F08000704785
:102A1000754600F02BF8AE4605006946534620F097
:102A20000700854618B020B5FDF7C0FBBDE8204083
:102A30004FF000064FF000074FF000084FF0000B7A
:102A400021F00701AC46ACE8C009ACE8C009ACE82D
:102A5000C009ACE8C0098D46704710B50446AFF315
:102A600000802046BDE81040FDF78CBB0048704751
:102A7000F40000202DE9C04130B4DFF8A0C23CEAE8
:102A8000111418BF3CEA131400F0EC8081EA03052E
:102A90001CEA111444EAD57418BF1CEA131500F09F
:102AA000C780A4EB05044FF0004545EAC12145EA83
:102AB000C32341EA505143EA525304F17F749942CF
:102AC00004F500344FEAC0204FEAC22208BF90420A
:102AD00000F09C804FEA13650FF24016765D4FEAD6
:102AE000134506FB05F7C7F1807706FB07F74FEAAA
:102AF000D737A7FB03687642C8F58038A7FB06CE18
:102B000038BFA8F1010807FB08E64FF0000EA6FB4E
:102B1000028CE6FB03CEDCF1000CCEF1004E38BF98
:102B2000AEF1010EA6FB0C584FF000074FF0000568
:102B3000E6FB0E87A1FB08C6A0FB07CE16EB0E0630
:102B400045F10005E1FB076515F1E04E7EBFA4F5F8
:102B500080345FEA46066D4116F1800745F10005B5
:102B60004FEA17274FEA066647EA0567A6F1DE46F1
:102B7000B6F1805F4FEA15251FD9384624F0010CC5
:102B800005EBC471BCF1FE6F01EB0C1102D8F0BC77
:102B9000BDE8008124425CBF01F5801E9EEAC47F2F
:102BA00002D4F0BCBDE80081244238D4F0BCA1F1CD
:102BB000C041BDE8004100F0F3B94FEAD22242EA39
:102BC00043524FEAD323A7FB02864FEAD02040EAC4
:102BD000415007FB03661EEA0E0F4FEAD12105FBA9
:102BE000026658BFA6EB0056B6EB00564FEA520EEF
:102BF0004EEAC37E18EB0E0E56EB530EBDD518EB06
:102C000002085E417F1C55F10005B6E74FF48015C0
:102C10004FF000074FF000064FF00008ADE7F0BCA2
:102C20004FF0000001F1C04101F00041BDE800811A
:102C300011EA0C1F0CEA131500D00CE013EA0C1F6C
:102C400000F025804FF00000F0BC81EA030101F0A4
:102C50000041BDE80081F0BCBDE8004181EA03010C
:102C600000F09EB9F0BCBDE8004170B500F04AF933
:102C7000097EFC3E00F007B881EA03014FF0000036
:102C800001F00041704781EA030100F089B9F0BC0E
:102C9000BDE800414FF0000021497047FFFDFBF9FE
:102CA000F7F5F4F2F0EEEDEBE9E8E6E4E3E1E0DE7F
:102CB000DDDBDAD8D7D5D4D3D1D0CFCDCCCBCAC8F1
:102CC000C7C6C5C4C2C1C0BFBEBDBCBBBAB9B8B718
:102CD000B6B5B4B3B2B1B0AFAEADACABAAA9A8A80B
:102CE000A7A6A5A4A3A3A2A1A09F9F9E9D9C9C9BD9
:102CF0009A99999897979695959493939291919084
:102D00008F8F8E8E8D8C8C8B8B8A89898888878714
:102D10008685858484838382828181800000FF0789
:102D20000000F87F4FEA41034FEA5353A3F5806355
:102D3000D3F11E03C8BFD3F1210C0CDD4FF00042CC
:102D400042EAC12242EA505232FA03FC8CEAE17CA8
:102D5000ACEBE1707047102BC4BF0020704703F547
:102D6000787CBCF1FF3F04D06FF0004282EA210082
:102D7000704770B500F0C6F8499224800020704773
:102D8000F2E710F0004248BF4042B0FA80F310FA78
:102D900003F10AD0C3F11D0303F580634FEA4150EC
:102DA00002EB035202EBD12170474FF00000704755
:102DB000DFF848C170B51CEA111E1EBF1CEA1315CE
:102DC0009EEA0C0F95EA0C0F00F06F8081EA030475
:102DD00023EA4C134EEAD47E21EA4C1141F48011CF
:102DE00043F48013AE44A1FB024CA0FB0365AEF19B
:102DF0007F7E361955EB0C05A1FB034C4CF100030B
:102E0000A0FB021C16EB0C06654153F100030942BE
:102E100018BF46F0010613F4007F0BD14FEA0331CF
:102E20004FEA0530340341EA155140EA16506FF07D
:102E300003020AE04FEAC3214FEAC520F40241EA47
:102E4000555140EA56506FF0020202EB2E4201EB60
:102E5000025585EACE710AD05FEA440C18BF24F00F
:102E6000004450F1000041F1000120EAD47040F22A
:102E7000FE7C624500D270BDA84214BF4FF0804472
:102E80004FF04044002E08BF0024BEF1806FA8BF61
:102E9000A1F1C041BDE8704080F282804FF0000097
:102EA00001F1C04101F0004170479EEA0C0F0CEAAD
:102EB000131518BF95EA0C0F06D04FF0000081EAF9
:102EC000030E0EF0004170BD00F01CF88900013EB9
:102ED00000F007B800F009B84FEA430C5FEA5C5C09
:102EE00008D081EA030100F05BB84FEA410C5FEAC9
:102EF0005C5CF6D14FF00000014970470000FF070D
:102F00000000F87F0EF1020E2EF0030E5EF8046B47
:102F1000364205D4012A43EB030515F5001F12D8EC
:102F2000012841EB010C1CF5001F0CD80ED14FEA13
:102F3000D17C15F5001F0CEB4C0C0CF1020C08BFFA
:102F40004CEBD37C04E04FF0080C01E04FEAD37C5B
:102F50000CEB4C0526FA05F606F00706B6F1040C54
:102F600006D20EEB860CBDE870404CF0010C6047B9
:102F7000DFE80CF0090B02024FF000414FF00000B7
:102F8000A1F5002170BD19461046012851EB01043E
:102F900018BFD4F5001484BF002001F0004170BDBB
:102FA0000808A0F500114FEA310170470A0D2B2ADD
:102FB0002A2A2A2A2A2A2A2A2A2A2A2A2A2A2A2A71
:102FC0002A2A2A2A2053544D3332BFAAB7A2B0E589
:102FD00020202A2A2A2A2A2A2A2A2A2A2A2A2A2A65
:102FE0002A2A2A2A2A2A2B0A0D7C20202020202067
:102FF00020202020202020202020202020202020D1
:1030000020202020202020202020202020202020C0
:1030100020202020202020202020202020202020B0
:10302000207C0A0D7C202020202020202020202011
:1030300020202020202020555341525420D2ECB291
:10304000BDCDA8D0C5CAD4D1E92020202020202081
:103050002020202020202020202020207C0A0D7CE1
:103060002020202020202020202020202020202060
:103070002020207777772E7363646269742E636FE4
:103080006D202020202020202020202020202020F3
:10309000202020202020207C0A0D7C2020202020A1
:1030A0002020202020202020202020202020B3C9E4
:1030B000B6BCB1B4D2BBCCD8BFC6BCBC202020208B
:1030C0002020202020202020202020202020202000
:1030D00020207C0A0D7C2020202020202020202061
:1030E000202020202020202020202020323031329B
:1030F0002E352E3135202020202020202020202079
:10310000202020202020202020202020207C0A0D8C
:103110007C20202020202020202020202020202053
:1031200020BCBCCAF5D6A7B3D65151A3BA343036A9
:103130003739353030332020202020202020202017
:1031400020202020202020207C0A0D2B2D2D2D2D0D
:103150002D2D2D2D2D2D2D2D2D2D2D2D2D2D2D2D9F
:103160002D2D2D2D2D2D2D2D2D2D2D2D2D2D2D2D8F
:103170002D2D2D2D2D2D2D2D2D2D2D2D2D2D2D2D7F
:103180002D2D2D2B0A0D0000A83100080000002075
:10319000B4000000280100085C320008B4000020E0
:1031A000A40600004401000800A24A040000000038
:1031B00000000000010203040607080900000000E7
:1031C00001020304010203040607080902040608B9
:1031D000B80B00000000000000002C000000000000
:1031E00000000000000000000000000000000000DF
:1031F00000000000000000000000000000000000CF
:103200000000000000000000920430056B06660715
:103210002608A90837099A09E509490A7C0AAB0A70
:10322000540BFF00FF00F200DE00C600A300810087
:103230005C003B00270014000A0000000000E40CC2
:103240006E0BD00A95099A08DA075707C906660671
:0C3250001B06B70584055505E8030000C7
:04000005080000ED02
:00000001FF
